{
  "_format": "hh-sol-artifact-1",
  "contractName": "SmartcontractShowcase",
  "sourceName": "contracts/SmartcontractShowcase.sol",
  "abi": [
    {
      "inputs": [
        {
          "internalType": "string",
          "name": "name",
          "type": "string"
        },
        {
          "internalType": "string",
          "name": "symbol",
          "type": "string"
        },
        {
          "internalType": "uint256",
          "name": "saleStart",
          "type": "uint256"
        }
      ],
      "stateMutability": "nonpayable",
      "type": "constructor"
    },
    {
      "inputs": [],
      "name": "ApprovalCallerNotOwnerNorApproved",
      "type": "error"
    },
    {
      "inputs": [],
      "name": "ApprovalQueryForNonexistentToken",
      "type": "error"
    },
    {
      "inputs": [],
      "name": "ApprovalToCurrentOwner",
      "type": "error"
    },
    {
      "inputs": [],
      "name": "ApproveToCaller",
      "type": "error"
    },
    {
      "inputs": [],
      "name": "BalanceQueryForZeroAddress",
      "type": "error"
    },
    {
      "inputs": [],
      "name": "MintToZeroAddress",
      "type": "error"
    },
    {
      "inputs": [],
      "name": "MintZeroQuantity",
      "type": "error"
    },
    {
      "inputs": [],
      "name": "OwnerQueryForNonexistentToken",
      "type": "error"
    },
    {
      "inputs": [],
      "name": "TransferCallerNotOwnerNorApproved",
      "type": "error"
    },
    {
      "inputs": [],
      "name": "TransferFromIncorrectOwner",
      "type": "error"
    },
    {
      "inputs": [],
      "name": "TransferToNonERC721ReceiverImplementer",
      "type": "error"
    },
    {
      "inputs": [],
      "name": "TransferToZeroAddress",
      "type": "error"
    },
    {
      "anonymous": false,
      "inputs": [
        {
          "indexed": true,
          "internalType": "address",
          "name": "owner",
          "type": "address"
        },
        {
          "indexed": true,
          "internalType": "address",
          "name": "approved",
          "type": "address"
        },
        {
          "indexed": true,
          "internalType": "uint256",
          "name": "tokenId",
          "type": "uint256"
        }
      ],
      "name": "Approval",
      "type": "event"
    },
    {
      "anonymous": false,
      "inputs": [
        {
          "indexed": true,
          "internalType": "address",
          "name": "owner",
          "type": "address"
        },
        {
          "indexed": true,
          "internalType": "address",
          "name": "operator",
          "type": "address"
        },
        {
          "indexed": false,
          "internalType": "bool",
          "name": "approved",
          "type": "bool"
        }
      ],
      "name": "ApprovalForAll",
      "type": "event"
    },
    {
      "anonymous": false,
      "inputs": [
        {
          "indexed": false,
          "internalType": "address",
          "name": "decodedAddress",
          "type": "address"
        },
        {
          "indexed": false,
          "internalType": "address",
          "name": "sender",
          "type": "address"
        }
      ],
      "name": "DecodingMessage",
      "type": "event"
    },
    {
      "anonymous": false,
      "inputs": [
        {
          "indexed": true,
          "internalType": "address",
          "name": "previousOwner",
          "type": "address"
        },
        {
          "indexed": true,
          "internalType": "address",
          "name": "newOwner",
          "type": "address"
        }
      ],
      "name": "OwnershipTransferred",
      "type": "event"
    },
    {
      "anonymous": false,
      "inputs": [
        {
          "indexed": true,
          "internalType": "address",
          "name": "from",
          "type": "address"
        },
        {
          "indexed": true,
          "internalType": "address",
          "name": "to",
          "type": "address"
        },
        {
          "indexed": true,
          "internalType": "uint256",
          "name": "tokenId",
          "type": "uint256"
        }
      ],
      "name": "Transfer",
      "type": "event"
    },
    {
      "inputs": [],
      "name": "REVEAL_TIMESTAMP",
      "outputs": [
        {
          "internalType": "uint256",
          "name": "",
          "type": "uint256"
        }
      ],
      "stateMutability": "view",
      "type": "function"
    },
    {
      "inputs": [
        {
          "internalType": "uint256",
          "name": "tokenId",
          "type": "uint256"
        },
        {
          "internalType": "string",
          "name": "_tokenURI",
          "type": "string"
        }
      ],
      "name": "_setTokenURI",
      "outputs": [],
      "stateMutability": "nonpayable",
      "type": "function"
    },
    {
      "inputs": [
        {
          "internalType": "address",
          "name": "to",
          "type": "address"
        },
        {
          "internalType": "uint256",
          "name": "tokenId",
          "type": "uint256"
        }
      ],
      "name": "approve",
      "outputs": [],
      "stateMutability": "nonpayable",
      "type": "function"
    },
    {
      "inputs": [
        {
          "internalType": "address",
          "name": "owner",
          "type": "address"
        }
      ],
      "name": "balanceOf",
      "outputs": [
        {
          "internalType": "uint256",
          "name": "",
          "type": "uint256"
        }
      ],
      "stateMutability": "view",
      "type": "function"
    },
    {
      "inputs": [],
      "name": "emergencySetStartingIndexBlock",
      "outputs": [],
      "stateMutability": "nonpayable",
      "type": "function"
    },
    {
      "inputs": [],
      "name": "flipIsAllowListActive",
      "outputs": [],
      "stateMutability": "nonpayable",
      "type": "function"
    },
    {
      "inputs": [],
      "name": "flipSaleState",
      "outputs": [],
      "stateMutability": "nonpayable",
      "type": "function"
    },
    {
      "inputs": [
        {
          "internalType": "uint256",
          "name": "tokenId",
          "type": "uint256"
        }
      ],
      "name": "getApproved",
      "outputs": [
        {
          "internalType": "address",
          "name": "",
          "type": "address"
        }
      ],
      "stateMutability": "view",
      "type": "function"
    },
    {
      "inputs": [
        {
          "internalType": "address",
          "name": "owner",
          "type": "address"
        },
        {
          "internalType": "address",
          "name": "operator",
          "type": "address"
        }
      ],
      "name": "isApprovedForAll",
      "outputs": [
        {
          "internalType": "bool",
          "name": "",
          "type": "bool"
        }
      ],
      "stateMutability": "view",
      "type": "function"
    },
    {
      "inputs": [
        {
          "internalType": "uint256",
          "name": "numberOfTokens",
          "type": "uint256"
        }
      ],
      "name": "mint",
      "outputs": [],
      "stateMutability": "payable",
      "type": "function"
    },
    {
      "inputs": [
        {
          "internalType": "uint256",
          "name": "numberOfTokens",
          "type": "uint256"
        },
        {
          "internalType": "bytes",
          "name": "signature",
          "type": "bytes"
        }
      ],
      "name": "mint",
      "outputs": [],
      "stateMutability": "payable",
      "type": "function"
    },
    {
      "inputs": [
        {
          "internalType": "uint8",
          "name": "numTokens",
          "type": "uint8"
        }
      ],
      "name": "mintAllowList",
      "outputs": [],
      "stateMutability": "payable",
      "type": "function"
    },
    {
      "inputs": [],
      "name": "name",
      "outputs": [
        {
          "internalType": "string",
          "name": "",
          "type": "string"
        }
      ],
      "stateMutability": "view",
      "type": "function"
    },
    {
      "inputs": [],
      "name": "owner",
      "outputs": [
        {
          "internalType": "address",
          "name": "",
          "type": "address"
        }
      ],
      "stateMutability": "view",
      "type": "function"
    },
    {
      "inputs": [
        {
          "internalType": "uint256",
          "name": "tokenId",
          "type": "uint256"
        }
      ],
      "name": "ownerOf",
      "outputs": [
        {
          "internalType": "address",
          "name": "",
          "type": "address"
        }
      ],
      "stateMutability": "view",
      "type": "function"
    },
    {
      "inputs": [],
      "name": "renounceOwnership",
      "outputs": [],
      "stateMutability": "nonpayable",
      "type": "function"
    },
    {
      "inputs": [
        {
          "internalType": "address",
          "name": "from",
          "type": "address"
        },
        {
          "internalType": "address",
          "name": "to",
          "type": "address"
        },
        {
          "internalType": "uint256",
          "name": "tokenId",
          "type": "uint256"
        }
      ],
      "name": "safeTransferFrom",
      "outputs": [],
      "stateMutability": "nonpayable",
      "type": "function"
    },
    {
      "inputs": [
        {
          "internalType": "address",
          "name": "from",
          "type": "address"
        },
        {
          "internalType": "address",
          "name": "to",
          "type": "address"
        },
        {
          "internalType": "uint256",
          "name": "tokenId",
          "type": "uint256"
        },
        {
          "internalType": "bytes",
          "name": "_data",
          "type": "bytes"
        }
      ],
      "name": "safeTransferFrom",
      "outputs": [],
      "stateMutability": "nonpayable",
      "type": "function"
    },
    {
      "inputs": [
        {
          "internalType": "address[]",
          "name": "addresses",
          "type": "address[]"
        },
        {
          "internalType": "uint8",
          "name": "numAllowedToMint",
          "type": "uint8"
        }
      ],
      "name": "setAllowList",
      "outputs": [],
      "stateMutability": "nonpayable",
      "type": "function"
    },
    {
      "inputs": [
        {
          "internalType": "address",
          "name": "operator",
          "type": "address"
        },
        {
          "internalType": "bool",
          "name": "approved",
          "type": "bool"
        }
      ],
      "name": "setApprovalForAll",
      "outputs": [],
      "stateMutability": "nonpayable",
      "type": "function"
    },
    {
      "inputs": [
        {
          "internalType": "string",
          "name": "baseURI_",
          "type": "string"
        }
      ],
      "name": "setBaseURI",
      "outputs": [],
      "stateMutability": "nonpayable",
      "type": "function"
    },
    {
      "inputs": [],
      "name": "setStartingIndex",
      "outputs": [],
      "stateMutability": "nonpayable",
      "type": "function"
    },
    {
      "inputs": [],
      "name": "startingIndex",
      "outputs": [
        {
          "internalType": "uint256",
          "name": "",
          "type": "uint256"
        }
      ],
      "stateMutability": "view",
      "type": "function"
    },
    {
      "inputs": [],
      "name": "startingIndexBlock",
      "outputs": [
        {
          "internalType": "uint256",
          "name": "",
          "type": "uint256"
        }
      ],
      "stateMutability": "view",
      "type": "function"
    },
    {
      "inputs": [
        {
          "internalType": "bytes4",
          "name": "interfaceId",
          "type": "bytes4"
        }
      ],
      "name": "supportsInterface",
      "outputs": [
        {
          "internalType": "bool",
          "name": "",
          "type": "bool"
        }
      ],
      "stateMutability": "view",
      "type": "function"
    },
    {
      "inputs": [],
      "name": "symbol",
      "outputs": [
        {
          "internalType": "string",
          "name": "",
          "type": "string"
        }
      ],
      "stateMutability": "view",
      "type": "function"
    },
    {
      "inputs": [],
      "name": "tokenPrice",
      "outputs": [
        {
          "internalType": "uint256",
          "name": "",
          "type": "uint256"
        }
      ],
      "stateMutability": "view",
      "type": "function"
    },
    {
      "inputs": [
        {
          "internalType": "uint256",
          "name": "tokenId",
          "type": "uint256"
        }
      ],
      "name": "tokenURI",
      "outputs": [
        {
          "internalType": "string",
          "name": "",
          "type": "string"
        }
      ],
      "stateMutability": "view",
      "type": "function"
    },
    {
      "inputs": [],
      "name": "totalSupply",
      "outputs": [
        {
          "internalType": "uint256",
          "name": "",
          "type": "uint256"
        }
      ],
      "stateMutability": "view",
      "type": "function"
    },
    {
      "inputs": [
        {
          "internalType": "address",
          "name": "from",
          "type": "address"
        },
        {
          "internalType": "address",
          "name": "to",
          "type": "address"
        },
        {
          "internalType": "uint256",
          "name": "tokenId",
          "type": "uint256"
        }
      ],
      "name": "transferFrom",
      "outputs": [],
      "stateMutability": "nonpayable",
      "type": "function"
    },
    {
      "inputs": [
        {
          "internalType": "address",
          "name": "newOwner",
          "type": "address"
        }
      ],
      "name": "transferOwnership",
      "outputs": [],
      "stateMutability": "nonpayable",
      "type": "function"
    },
    {
      "inputs": [],
      "name": "withdraw",
      "outputs": [],
      "stateMutability": "nonpayable",
      "type": "function"
    }
  ],
  "bytecode": "0x60806040526127106009556000600a60006101000a81548160ff0219169083151502179055506000600a60016101000a81548160ff0219169083151502179055507397266528bb155fc0b0d817d1011d22d3e05bf20d600a60026101000a81548173ffffffffffffffffffffffffffffffffffffffff021916908373ffffffffffffffffffffffffffffffffffffffff16021790555067011c37937e080000600b55348015620000ae57600080fd5b5060405162004ae038038062004ae08339818101604052810190620000d49190620004bb565b82828160029080519060200190620000ee92919062000233565b5080600390805190602001906200010792919062000233565b50620001186200016060201b60201c565b600081905550505062000140620001346200016560201b60201c565b6200016d60201b60201c565b620bdd808162000151919062000584565b600f8190555050505062000646565b600090565b600033905090565b6000600860009054906101000a900473ffffffffffffffffffffffffffffffffffffffff16905081600860006101000a81548173ffffffffffffffffffffffffffffffffffffffff021916908373ffffffffffffffffffffffffffffffffffffffff1602179055508173ffffffffffffffffffffffffffffffffffffffff168173ffffffffffffffffffffffffffffffffffffffff167f8be0079c531659141344cd1fd0a4f28419497f9722a3daafe3b4186f6b6457e060405160405180910390a35050565b828054620002419062000610565b90600052602060002090601f016020900481019282620002655760008555620002b1565b82601f106200028057805160ff1916838001178555620002b1565b82800160010185558215620002b1579182015b82811115620002b057825182559160200191906001019062000293565b5b509050620002c09190620002c4565b5090565b5b80821115620002df576000816000905550600101620002c5565b5090565b6000604051905090565b600080fd5b600080fd5b600080fd5b600080fd5b6000601f19601f8301169050919050565b7f4e487b7100000000000000000000000000000000000000000000000000000000600052604160045260246000fd5b6200034c8262000301565b810181811067ffffffffffffffff821117156200036e576200036d62000312565b5b80604052505050565b600062000383620002e3565b905062000391828262000341565b919050565b600067ffffffffffffffff821115620003b457620003b362000312565b5b620003bf8262000301565b9050602081019050919050565b60005b83811015620003ec578082015181840152602081019050620003cf565b83811115620003fc576000848401525b50505050565b600062000419620004138462000396565b62000377565b905082815260208101848484011115620004385762000437620002fc565b5b62000445848285620003cc565b509392505050565b600082601f830112620004655762000464620002f7565b5b81516200047784826020860162000402565b91505092915050565b6000819050919050565b620004958162000480565b8114620004a157600080fd5b50565b600081519050620004b5816200048a565b92915050565b600080600060608486031215620004d757620004d6620002ed565b5b600084015167ffffffffffffffff811115620004f857620004f7620002f2565b5b62000506868287016200044d565b935050602084015167ffffffffffffffff8111156200052a5762000529620002f2565b5b62000538868287016200044d565b92505060406200054b86828701620004a4565b9150509250925092565b7f4e487b7100000000000000000000000000000000000000000000000000000000600052601160045260246000fd5b6000620005918262000480565b91506200059e8362000480565b9250827fffffffffffffffffffffffffffffffffffffffffffffffffffffffffffffffff03821115620005d657620005d562000555565b5b828201905092915050565b7f4e487b7100000000000000000000000000000000000000000000000000000000600052602260045260246000fd5b600060028204905060018216806200062957607f821691505b6020821081141562000640576200063f620005e1565b5b50919050565b61448a80620006566000396000f3fe6080604052600436106101e35760003560e01c80637ff9b59611610102578063cb774d4711610095578063e36d649811610064578063e36d649814610655578063e985e9c514610680578063e9866550146106bd578063f2fde38b146106d4576101e3565b8063cb774d47146105db578063d994f0db14610606578063db7fd4081461061d578063ddff5b1c14610639576101e3565b8063a0712d68116100d1578063a0712d6814610530578063a22cb4651461054c578063b88d4fde14610575578063c87b56dd1461059e576101e3565b80637ff9b596146104865780638295784d146104b15780638da5cb5b146104da57806395d89b4114610505576101e3565b806334918dfd1161017a5780636352211e116101495780636352211e146103de57806370a082311461041b578063715018a6146104585780637d17fcbe1461046f576101e3565b806334918dfd1461035e5780633ccfd60b1461037557806342842e0e1461038c57806355f804b3146103b5576101e3565b8063095ea7b3116101b6578063095ea7b3146102b657806318160ddd146102df57806318e20a381461030a57806323b872dd14610335576101e3565b806301538868146101e857806301ffc9a71461021157806306fdde031461024e578063081812fc14610279575b600080fd5b3480156101f457600080fd5b5061020f600480360381019061020a9190613104565b6106fd565b005b34801561021d57600080fd5b50610238600480360381019061023391906131b8565b6107a5565b6040516102459190613200565b60405180910390f35b34801561025a57600080fd5b50610263610887565b60405161027091906132a3565b60405180910390f35b34801561028557600080fd5b506102a0600480360381019061029b91906132c5565b610919565b6040516102ad9190613333565b60405180910390f35b3480156102c257600080fd5b506102dd60048036038101906102d8919061337a565b610995565b005b3480156102eb57600080fd5b506102f4610aa0565b60405161030191906133c9565b60405180910390f35b34801561031657600080fd5b5061031f610ab7565b60405161032c91906133c9565b60405180910390f35b34801561034157600080fd5b5061035c600480360381019061035791906133e4565b610abd565b005b34801561036a57600080fd5b50610373610acd565b005b34801561038157600080fd5b5061038a610b75565b005b34801561039857600080fd5b506103b360048036038101906103ae91906133e4565b610c40565b005b3480156103c157600080fd5b506103dc60048036038101906103d79190613437565b610c60565b005b3480156103ea57600080fd5b50610405600480360381019061040091906132c5565b610cf6565b6040516104129190613333565b60405180910390f35b34801561042757600080fd5b50610442600480360381019061043d9190613480565b610d0c565b60405161044f91906133c9565b60405180910390f35b34801561046457600080fd5b5061046d610ddc565b005b34801561047b57600080fd5b50610484610e64565b005b34801561049257600080fd5b5061049b610f2e565b6040516104a891906133c9565b60405180910390f35b3480156104bd57600080fd5b506104d860048036038101906104d39190613546565b610f34565b005b3480156104e657600080fd5b506104ef611056565b6040516104fc9190613333565b60405180910390f35b34801561051157600080fd5b5061051a611080565b60405161052791906132a3565b60405180910390f35b61054a600480360381019061054591906132c5565b611112565b005b34801561055857600080fd5b50610573600480360381019061056e91906135d2565b611250565b005b34801561058157600080fd5b5061059c600480360381019061059791906136b3565b6113c8565b005b3480156105aa57600080fd5b506105c560048036038101906105c091906132c5565b611444565b6040516105d291906132a3565b60405180910390f35b3480156105e757600080fd5b506105f0611482565b6040516105fd91906133c9565b60405180910390f35b34801561061257600080fd5b5061061b611488565b005b6106376004803603810190610632919061378c565b611530565b005b610653600480360381019061064e91906137ec565b611669565b005b34801561066157600080fd5b5061066a611883565b60405161067791906133c9565b60405180910390f35b34801561068c57600080fd5b506106a760048036038101906106a29190613819565b611889565b6040516106b49190613200565b60405180910390f35b3480156106c957600080fd5b506106d261191d565b005b3480156106e057600080fd5b506106fb60048036038101906106f69190613480565b611a2e565b005b610705611b26565b73ffffffffffffffffffffffffffffffffffffffff16610723611056565b73ffffffffffffffffffffffffffffffffffffffff1614610779576040517f08c379a0000000000000000000000000000000000000000000000000000000008152600401610770906138a5565b60405180910390fd5b806011600084815260200190815260200160002090805190602001906107a0929190612e8e565b505050565b60007f80ac58cd000000000000000000000000000000000000000000000000000000007bffffffffffffffffffffffffffffffffffffffffffffffffffffffff1916827bffffffffffffffffffffffffffffffffffffffffffffffffffffffff1916148061087057507f5b5e139f000000000000000000000000000000000000000000000000000000007bffffffffffffffffffffffffffffffffffffffffffffffffffffffff1916827bffffffffffffffffffffffffffffffffffffffffffffffffffffffff1916145b80610880575061087f82611b2e565b5b9050919050565b606060028054610896906138f4565b80601f01602080910402602001604051908101604052809291908181526020018280546108c2906138f4565b801561090f5780601f106108e45761010080835404028352916020019161090f565b820191906000526020600020905b8154815290600101906020018083116108f257829003601f168201915b5050505050905090565b600061092482611b98565b61095a576040517fcf4700e400000000000000000000000000000000000000000000000000000000815260040160405180910390fd5b6006600083815260200190815260200160002060009054906101000a900473ffffffffffffffffffffffffffffffffffffffff169050919050565b60006109a082610cf6565b90508073ffffffffffffffffffffffffffffffffffffffff168373ffffffffffffffffffffffffffffffffffffffff161415610a08576040517f943f7b8c00000000000000000000000000000000000000000000000000000000815260040160405180910390fd5b8073ffffffffffffffffffffffffffffffffffffffff16610a27611b26565b73ffffffffffffffffffffffffffffffffffffffff1614158015610a595750610a5781610a52611b26565b611889565b155b15610a90576040517fcfb3b94200000000000000000000000000000000000000000000000000000000815260040160405180910390fd5b610a9b838383611be6565b505050565b6000610aaa611c98565b6001546000540303905090565b600f5481565b610ac8838383611c9d565b505050565b610ad5611b26565b73ffffffffffffffffffffffffffffffffffffffff16610af3611056565b73ffffffffffffffffffffffffffffffffffffffff1614610b49576040517f08c379a0000000000000000000000000000000000000000000000000000000008152600401610b40906138a5565b60405180910390fd5b600a60019054906101000a900460ff1615600a60016101000a81548160ff021916908315150217905550565b610b7d611b26565b73ffffffffffffffffffffffffffffffffffffffff16610b9b611056565b73ffffffffffffffffffffffffffffffffffffffff1614610bf1576040517f08c379a0000000000000000000000000000000000000000000000000000000008152600401610be8906138a5565b60405180910390fd5b60004790503373ffffffffffffffffffffffffffffffffffffffff166108fc829081150290604051600060405180830381858888f19350505050158015610c3c573d6000803e3d6000fd5b5050565b610c5b838383604051806020016040528060008152506113c8565b505050565b610c68611b26565b73ffffffffffffffffffffffffffffffffffffffff16610c86611056565b73ffffffffffffffffffffffffffffffffffffffff1614610cdc576040517f08c379a0000000000000000000000000000000000000000000000000000000008152600401610cd3906138a5565b60405180910390fd5b8060109080519060200190610cf2929190612e8e565b5050565b6000610d018261218e565b600001519050919050565b60008073ffffffffffffffffffffffffffffffffffffffff168273ffffffffffffffffffffffffffffffffffffffff161415610d74576040517f8f4eb60400000000000000000000000000000000000000000000000000000000815260040160405180910390fd5b600560008373ffffffffffffffffffffffffffffffffffffffff1673ffffffffffffffffffffffffffffffffffffffff16815260200190815260200160002060000160009054906101000a900467ffffffffffffffff1667ffffffffffffffff169050919050565b610de4611b26565b73ffffffffffffffffffffffffffffffffffffffff16610e02611056565b73ffffffffffffffffffffffffffffffffffffffff1614610e58576040517f08c379a0000000000000000000000000000000000000000000000000000000008152600401610e4f906138a5565b60405180910390fd5b610e62600061241d565b565b610e6c611b26565b73ffffffffffffffffffffffffffffffffffffffff16610e8a611056565b73ffffffffffffffffffffffffffffffffffffffff1614610ee0576040517f08c379a0000000000000000000000000000000000000000000000000000000008152600401610ed7906138a5565b60405180910390fd5b6000600d5414610f25576040517f08c379a0000000000000000000000000000000000000000000000000000000008152600401610f1c90613972565b60405180910390fd5b43600c81905550565b600b5481565b610f3c611b26565b73ffffffffffffffffffffffffffffffffffffffff16610f5a611056565b73ffffffffffffffffffffffffffffffffffffffff1614610fb0576040517f08c379a0000000000000000000000000000000000000000000000000000000008152600401610fa7906138a5565b60405180910390fd5b60005b838390508110156110505781600e6000868685818110610fd657610fd5613992565b5b9050602002016020810190610feb9190613480565b73ffffffffffffffffffffffffffffffffffffffff1673ffffffffffffffffffffffffffffffffffffffff16815260200190815260200160002060006101000a81548160ff021916908360ff1602179055508080611048906139f0565b915050610fb3565b50505050565b6000600860009054906101000a900473ffffffffffffffffffffffffffffffffffffffff16905090565b60606003805461108f906138f4565b80601f01602080910402602001604051908101604052809291908181526020018280546110bb906138f4565b80156111085780601f106110dd57610100808354040283529160200191611108565b820191906000526020600020905b8154815290600101906020018083116110eb57829003601f168201915b5050505050905090565b600a60019054906101000a900460ff16611161576040517f08c379a000000000000000000000000000000000000000000000000000000000815260040161115890613a85565b60405180910390fd5b6009548161116d610aa0565b6111779190613aa5565b11156111b8576040517f08c379a00000000000000000000000000000000000000000000000000000000081526004016111af90613b6d565b60405180910390fd5b346111ce82600b546124e390919063ffffffff16565b111561120f576040517f08c379a000000000000000000000000000000000000000000000000000000000815260040161120690613bff565b60405180910390fd5b61121933826124f9565b6000600c541480156112405750600954611231610aa0565b148061123f5750600f544210155b5b1561124d5743600c819055505b50565b611258611b26565b73ffffffffffffffffffffffffffffffffffffffff168273ffffffffffffffffffffffffffffffffffffffff1614156112bd576040517fb06307db00000000000000000000000000000000000000000000000000000000815260040160405180910390fd5b80600760006112ca611b26565b73ffffffffffffffffffffffffffffffffffffffff1673ffffffffffffffffffffffffffffffffffffffff16815260200190815260200160002060008473ffffffffffffffffffffffffffffffffffffffff1673ffffffffffffffffffffffffffffffffffffffff16815260200190815260200160002060006101000a81548160ff0219169083151502179055508173ffffffffffffffffffffffffffffffffffffffff16611377611b26565b73ffffffffffffffffffffffffffffffffffffffff167f17307eab39ab6107e8899845ad3d59bd9653f200f220920489ca2b5937696c31836040516113bc9190613200565b60405180910390a35050565b6113d3848484611c9d565b6113f28373ffffffffffffffffffffffffffffffffffffffff16612517565b801561140757506114058484848461253a565b155b1561143e576040517fd1a57ed600000000000000000000000000000000000000000000000000000000815260040160405180910390fd5b50505050565b606060106011600084815260200190815260200160002060405160200161146c929190613cbe565b6040516020818303038152906040529050919050565b600d5481565b611490611b26565b73ffffffffffffffffffffffffffffffffffffffff166114ae611056565b73ffffffffffffffffffffffffffffffffffffffff1614611504576040517f08c379a00000000000000000000000000000000000000000000000000000000081526004016114fb906138a5565b60405180910390fd5b600a60009054906101000a900460ff1615600a60006101000a81548160ff021916908315150217905550565b60006115c883838080601f016020809104026020016040519081016040528093929190818152602001838380828437600081840152601f19601f820116905080830192505050505050503373ffffffffffffffffffffffffffffffffffffffff1660001b6040516020016115a49190613d59565b6040516020818303038152906040528051906020012061268b90919063ffffffff16565b9050600a60029054906101000a900473ffffffffffffffffffffffffffffffffffffffff1673ffffffffffffffffffffffffffffffffffffffff168173ffffffffffffffffffffffffffffffffffffffff161461165a576040517f08c379a000000000000000000000000000000000000000000000000000000000815260040161165190613dcb565b60405180910390fd5b61166384611112565b50505050565b6000611673610aa0565b9050600a60009054906101000a900460ff166116c4576040517f08c379a00000000000000000000000000000000000000000000000000000000081526004016116bb90613e37565b60405180910390fd5b600e60003373ffffffffffffffffffffffffffffffffffffffff1673ffffffffffffffffffffffffffffffffffffffff16815260200190815260200160002060009054906101000a900460ff1660ff168260ff161115611759576040517f08c379a000000000000000000000000000000000000000000000000000000000815260040161175090613b6d565b60405180910390fd5b6009548260ff168261176b9190613aa5565b11156117ac576040517f08c379a00000000000000000000000000000000000000000000000000000000081526004016117a390613ea3565b60405180910390fd5b348260ff16600b546117be9190613ec3565b11156117ff576040517f08c379a00000000000000000000000000000000000000000000000000000000081526004016117f690613bff565b60405180910390fd5b61180c338360ff166124f9565b81600e60003373ffffffffffffffffffffffffffffffffffffffff1673ffffffffffffffffffffffffffffffffffffffff16815260200190815260200160002060008282829054906101000a900460ff166118679190613f1d565b92506101000a81548160ff021916908360ff1602179055505050565b600c5481565b6000600760008473ffffffffffffffffffffffffffffffffffffffff1673ffffffffffffffffffffffffffffffffffffffff16815260200190815260200160002060008373ffffffffffffffffffffffffffffffffffffffff1673ffffffffffffffffffffffffffffffffffffffff16815260200190815260200160002060009054906101000a900460ff16905092915050565b6000600d5414611962576040517f08c379a000000000000000000000000000000000000000000000000000000000815260040161195990613972565b60405180910390fd5b6000600c5414156119a8576040517f08c379a000000000000000000000000000000000000000000000000000000000815260040161199f90613f9d565b60405180910390fd5b600954600c544060001c6119bc9190613fec565b600d8190555060ff6119d9600c54436126b290919063ffffffff16565b1115611a04576009546001436119ef919061401d565b4060001c6119fd9190613fec565b600d819055505b6000600d541415611a2c57611a256001600d546126c890919063ffffffff16565b600d819055505b565b611a36611b26565b73ffffffffffffffffffffffffffffffffffffffff16611a54611056565b73ffffffffffffffffffffffffffffffffffffffff1614611aaa576040517f08c379a0000000000000000000000000000000000000000000000000000000008152600401611aa1906138a5565b60405180910390fd5b600073ffffffffffffffffffffffffffffffffffffffff168173ffffffffffffffffffffffffffffffffffffffff161415611b1a576040517f08c379a0000000000000000000000000000000000000000000000000000000008152600401611b11906140c3565b60405180910390fd5b611b238161241d565b50565b600033905090565b60007f01ffc9a7000000000000000000000000000000000000000000000000000000007bffffffffffffffffffffffffffffffffffffffffffffffffffffffff1916827bffffffffffffffffffffffffffffffffffffffffffffffffffffffff1916149050919050565b600081611ba3611c98565b11158015611bb2575060005482105b8015611bdf575060046000838152602001908152602001600020600001601c9054906101000a900460ff16155b9050919050565b826006600084815260200190815260200160002060006101000a81548173ffffffffffffffffffffffffffffffffffffffff021916908373ffffffffffffffffffffffffffffffffffffffff160217905550818373ffffffffffffffffffffffffffffffffffffffff168273ffffffffffffffffffffffffffffffffffffffff167f8c5be1e5ebec7d5bd14f71427d1e84f3dd0314c0f7b2291e5b200ac8c7c3b92560405160405180910390a4505050565b600090565b6000611ca88261218e565b90506000816000015173ffffffffffffffffffffffffffffffffffffffff16611ccf611b26565b73ffffffffffffffffffffffffffffffffffffffff161480611d025750611d018260000151611cfc611b26565b611889565b5b80611d475750611d10611b26565b73ffffffffffffffffffffffffffffffffffffffff16611d2f84610919565b73ffffffffffffffffffffffffffffffffffffffff16145b905080611d80576040517f59c896be00000000000000000000000000000000000000000000000000000000815260040160405180910390fd5b8473ffffffffffffffffffffffffffffffffffffffff16826000015173ffffffffffffffffffffffffffffffffffffffff1614611de9576040517fa114810000000000000000000000000000000000000000000000000000000000815260040160405180910390fd5b600073ffffffffffffffffffffffffffffffffffffffff168473ffffffffffffffffffffffffffffffffffffffff161415611e50576040517fea553b3400000000000000000000000000000000000000000000000000000000815260040160405180910390fd5b611e5d85858560016126de565b611e6d6000848460000151611be6565b6001600560008773ffffffffffffffffffffffffffffffffffffffff1673ffffffffffffffffffffffffffffffffffffffff16815260200190815260200160002060000160008282829054906101000a900467ffffffffffffffff160392506101000a81548167ffffffffffffffff021916908367ffffffffffffffff1602179055506001600560008673ffffffffffffffffffffffffffffffffffffffff1673ffffffffffffffffffffffffffffffffffffffff16815260200190815260200160002060000160008282829054906101000a900467ffffffffffffffff160192506101000a81548167ffffffffffffffff021916908367ffffffffffffffff160217905550836004600085815260200190815260200160002060000160006101000a81548173ffffffffffffffffffffffffffffffffffffffff021916908373ffffffffffffffffffffffffffffffffffffffff160217905550426004600085815260200190815260200160002060000160146101000a81548167ffffffffffffffff021916908367ffffffffffffffff1602179055506000600184019050600073ffffffffffffffffffffffffffffffffffffffff166004600083815260200190815260200160002060000160009054906101000a900473ffffffffffffffffffffffffffffffffffffffff1673ffffffffffffffffffffffffffffffffffffffff16141561211e5760005481101561211d5782600001516004600083815260200190815260200160002060000160006101000a81548173ffffffffffffffffffffffffffffffffffffffff021916908373ffffffffffffffffffffffffffffffffffffffff16021790555082602001516004600083815260200190815260200160002060000160146101000a81548167ffffffffffffffff021916908367ffffffffffffffff1602179055505b5b50828473ffffffffffffffffffffffffffffffffffffffff168673ffffffffffffffffffffffffffffffffffffffff167fddf252ad1be2c89b69c2b068fc378daa952ba7f163c4a11628f55a4df523b3ef60405160405180910390a461218785858560016126e4565b5050505050565b612196612f14565b6000829050806121a4611c98565b111580156121b3575060005481105b156123e6576000600460008381526020019081526020016000206040518060600160405290816000820160009054906101000a900473ffffffffffffffffffffffffffffffffffffffff1673ffffffffffffffffffffffffffffffffffffffff1673ffffffffffffffffffffffffffffffffffffffff1681526020016000820160149054906101000a900467ffffffffffffffff1667ffffffffffffffff1667ffffffffffffffff16815260200160008201601c9054906101000a900460ff161515151581525050905080604001516123e457600073ffffffffffffffffffffffffffffffffffffffff16816000015173ffffffffffffffffffffffffffffffffffffffff16146122c8578092505050612418565b5b6001156123e357818060019003925050600460008381526020019081526020016000206040518060600160405290816000820160009054906101000a900473ffffffffffffffffffffffffffffffffffffffff1673ffffffffffffffffffffffffffffffffffffffff1673ffffffffffffffffffffffffffffffffffffffff1681526020016000820160149054906101000a900467ffffffffffffffff1667ffffffffffffffff1667ffffffffffffffff16815260200160008201601c9054906101000a900460ff1615151515815250509050600073ffffffffffffffffffffffffffffffffffffffff16816000015173ffffffffffffffffffffffffffffffffffffffff16146123de578092505050612418565b6122c9565b5b505b6040517fdf2d9b4200000000000000000000000000000000000000000000000000000000815260040160405180910390fd5b919050565b6000600860009054906101000a900473ffffffffffffffffffffffffffffffffffffffff16905081600860006101000a81548173ffffffffffffffffffffffffffffffffffffffff021916908373ffffffffffffffffffffffffffffffffffffffff1602179055508173ffffffffffffffffffffffffffffffffffffffff168173ffffffffffffffffffffffffffffffffffffffff167f8be0079c531659141344cd1fd0a4f28419497f9722a3daafe3b4186f6b6457e060405160405180910390a35050565b600081836124f19190613ec3565b905092915050565b6125138282604051806020016040528060008152506126ea565b5050565b6000808273ffffffffffffffffffffffffffffffffffffffff163b119050919050565b60008373ffffffffffffffffffffffffffffffffffffffff1663150b7a02612560611b26565b8786866040518563ffffffff1660e01b81526004016125829493929190614138565b6020604051808303816000875af19250505080156125be57506040513d601f19601f820116820180604052508101906125bb9190614199565b60015b612638573d80600081146125ee576040519150601f19603f3d011682016040523d82523d6000602084013e6125f3565b606091505b50600081511415612630576040517fd1a57ed600000000000000000000000000000000000000000000000000000000815260040160405180910390fd5b805181602001fd5b63150b7a0260e01b7bffffffffffffffffffffffffffffffffffffffffffffffffffffffff1916817bffffffffffffffffffffffffffffffffffffffffffffffffffffffff191614915050949350505050565b600080600061269a85856126fc565b915091506126a78161277f565b819250505092915050565b600081836126c0919061401d565b905092915050565b600081836126d69190613aa5565b905092915050565b50505050565b50505050565b6126f78383836001612954565b505050565b60008060418351141561273e5760008060006020860151925060408601519150606086015160001a905061273287828585612d22565b94509450505050612778565b60408351141561276f576000806020850151915060408501519050612764868383612e2f565b935093505050612778565b60006002915091505b9250929050565b60006004811115612793576127926141c6565b5b8160048111156127a6576127a56141c6565b5b14156127b157612951565b600160048111156127c5576127c46141c6565b5b8160048111156127d8576127d76141c6565b5b1415612819576040517f08c379a000000000000000000000000000000000000000000000000000000000815260040161281090614241565b60405180910390fd5b6002600481111561282d5761282c6141c6565b5b8160048111156128405761283f6141c6565b5b1415612881576040517f08c379a0000000000000000000000000000000000000000000000000000000008152600401612878906142ad565b60405180910390fd5b60036004811115612895576128946141c6565b5b8160048111156128a8576128a76141c6565b5b14156128e9576040517f08c379a00000000000000000000000000000000000000000000000000000000081526004016128e09061433f565b60405180910390fd5b6004808111156128fc576128fb6141c6565b5b81600481111561290f5761290e6141c6565b5b1415612950576040517f08c379a0000000000000000000000000000000000000000000000000000000008152600401612947906143d1565b60405180910390fd5b5b50565b600080549050600073ffffffffffffffffffffffffffffffffffffffff168573ffffffffffffffffffffffffffffffffffffffff1614156129c1576040517f2e07630000000000000000000000000000000000000000000000000000000000815260040160405180910390fd5b60008414156129fc576040517fb562e8dd00000000000000000000000000000000000000000000000000000000815260040160405180910390fd5b612a0960008683876126de565b83600560008773ffffffffffffffffffffffffffffffffffffffff1673ffffffffffffffffffffffffffffffffffffffff16815260200190815260200160002060000160008282829054906101000a900467ffffffffffffffff160192506101000a81548167ffffffffffffffff021916908367ffffffffffffffff16021790555083600560008773ffffffffffffffffffffffffffffffffffffffff1673ffffffffffffffffffffffffffffffffffffffff16815260200190815260200160002060000160088282829054906101000a900467ffffffffffffffff160192506101000a81548167ffffffffffffffff021916908367ffffffffffffffff160217905550846004600083815260200190815260200160002060000160006101000a81548173ffffffffffffffffffffffffffffffffffffffff021916908373ffffffffffffffffffffffffffffffffffffffff160217905550426004600083815260200190815260200160002060000160146101000a81548167ffffffffffffffff021916908367ffffffffffffffff160217905550600081905060008582019050838015612bd35750612bd28773ffffffffffffffffffffffffffffffffffffffff16612517565b5b15612c99575b818773ffffffffffffffffffffffffffffffffffffffff16600073ffffffffffffffffffffffffffffffffffffffff167fddf252ad1be2c89b69c2b068fc378daa952ba7f163c4a11628f55a4df523b3ef60405160405180910390a4612c48600088848060010195508861253a565b612c7e576040517fd1a57ed600000000000000000000000000000000000000000000000000000000815260040160405180910390fd5b80821415612bd9578260005414612c9457600080fd5b612d05565b5b818060010192508773ffffffffffffffffffffffffffffffffffffffff16600073ffffffffffffffffffffffffffffffffffffffff167fddf252ad1be2c89b69c2b068fc378daa952ba7f163c4a11628f55a4df523b3ef60405160405180910390a480821415612c9a575b816000819055505050612d1b60008683876126e4565b5050505050565b6000807f7fffffffffffffffffffffffffffffff5d576e7357a4501ddfe92f46681b20a08360001c1115612d5d576000600391509150612e26565b601b8560ff1614158015612d755750601c8560ff1614155b15612d87576000600491509150612e26565b600060018787878760405160008152602001604052604051612dac949392919061440f565b6020604051602081039080840390855afa158015612dce573d6000803e3d6000fd5b505050602060405103519050600073ffffffffffffffffffffffffffffffffffffffff168173ffffffffffffffffffffffffffffffffffffffff161415612e1d57600060019250925050612e26565b80600092509250505b94509492505050565b60008060007f7fffffffffffffffffffffffffffffffffffffffffffffffffffffffffffffff60001b841690506000601b60ff8660001c901c612e729190613aa5565b9050612e8087828885612d22565b935093505050935093915050565b828054612e9a906138f4565b90600052602060002090601f016020900481019282612ebc5760008555612f03565b82601f10612ed557805160ff1916838001178555612f03565b82800160010185558215612f03579182015b82811115612f02578251825591602001919060010190612ee7565b5b509050612f109190612f57565b5090565b6040518060600160405280600073ffffffffffffffffffffffffffffffffffffffff168152602001600067ffffffffffffffff1681526020016000151581525090565b5b80821115612f70576000816000905550600101612f58565b5090565b6000604051905090565b600080fd5b600080fd5b6000819050919050565b612f9b81612f88565b8114612fa657600080fd5b50565b600081359050612fb881612f92565b92915050565b600080fd5b600080fd5b6000601f19601f8301169050919050565b7f4e487b7100000000000000000000000000000000000000000000000000000000600052604160045260246000fd5b61301182612fc8565b810181811067ffffffffffffffff821117156130305761302f612fd9565b5b80604052505050565b6000613043612f74565b905061304f8282613008565b919050565b600067ffffffffffffffff82111561306f5761306e612fd9565b5b61307882612fc8565b9050602081019050919050565b82818337600083830152505050565b60006130a76130a284613054565b613039565b9050828152602081018484840111156130c3576130c2612fc3565b5b6130ce848285613085565b509392505050565b600082601f8301126130eb576130ea612fbe565b5b81356130fb848260208601613094565b91505092915050565b6000806040838503121561311b5761311a612f7e565b5b600061312985828601612fa9565b925050602083013567ffffffffffffffff81111561314a57613149612f83565b5b613156858286016130d6565b9150509250929050565b60007fffffffff0000000000000000000000000000000000000000000000000000000082169050919050565b61319581613160565b81146131a057600080fd5b50565b6000813590506131b28161318c565b92915050565b6000602082840312156131ce576131cd612f7e565b5b60006131dc848285016131a3565b91505092915050565b60008115159050919050565b6131fa816131e5565b82525050565b600060208201905061321560008301846131f1565b92915050565b600081519050919050565b600082825260208201905092915050565b60005b8381101561325557808201518184015260208101905061323a565b83811115613264576000848401525b50505050565b60006132758261321b565b61327f8185613226565b935061328f818560208601613237565b61329881612fc8565b840191505092915050565b600060208201905081810360008301526132bd818461326a565b905092915050565b6000602082840312156132db576132da612f7e565b5b60006132e984828501612fa9565b91505092915050565b600073ffffffffffffffffffffffffffffffffffffffff82169050919050565b600061331d826132f2565b9050919050565b61332d81613312565b82525050565b60006020820190506133486000830184613324565b92915050565b61335781613312565b811461336257600080fd5b50565b6000813590506133748161334e565b92915050565b6000806040838503121561339157613390612f7e565b5b600061339f85828601613365565b92505060206133b085828601612fa9565b9150509250929050565b6133c381612f88565b82525050565b60006020820190506133de60008301846133ba565b92915050565b6000806000606084860312156133fd576133fc612f7e565b5b600061340b86828701613365565b935050602061341c86828701613365565b925050604061342d86828701612fa9565b9150509250925092565b60006020828403121561344d5761344c612f7e565b5b600082013567ffffffffffffffff81111561346b5761346a612f83565b5b613477848285016130d6565b91505092915050565b60006020828403121561349657613495612f7e565b5b60006134a484828501613365565b91505092915050565b600080fd5b600080fd5b60008083601f8401126134cd576134cc612fbe565b5b8235905067ffffffffffffffff8111156134ea576134e96134ad565b5b602083019150836020820283011115613506576135056134b2565b5b9250929050565b600060ff82169050919050565b6135238161350d565b811461352e57600080fd5b50565b6000813590506135408161351a565b92915050565b60008060006040848603121561355f5761355e612f7e565b5b600084013567ffffffffffffffff81111561357d5761357c612f83565b5b613589868287016134b7565b9350935050602061359c86828701613531565b9150509250925092565b6135af816131e5565b81146135ba57600080fd5b50565b6000813590506135cc816135a6565b92915050565b600080604083850312156135e9576135e8612f7e565b5b60006135f785828601613365565b9250506020613608858286016135bd565b9150509250929050565b600067ffffffffffffffff82111561362d5761362c612fd9565b5b61363682612fc8565b9050602081019050919050565b600061365661365184613612565b613039565b90508281526020810184848401111561367257613671612fc3565b5b61367d848285613085565b509392505050565b600082601f83011261369a57613699612fbe565b5b81356136aa848260208601613643565b91505092915050565b600080600080608085870312156136cd576136cc612f7e565b5b60006136db87828801613365565b94505060206136ec87828801613365565b93505060406136fd87828801612fa9565b925050606085013567ffffffffffffffff81111561371e5761371d612f83565b5b61372a87828801613685565b91505092959194509250565b60008083601f84011261374c5761374b612fbe565b5b8235905067ffffffffffffffff811115613769576137686134ad565b5b602083019150836001820283011115613785576137846134b2565b5b9250929050565b6000806000604084860312156137a5576137a4612f7e565b5b60006137b386828701612fa9565b935050602084013567ffffffffffffffff8111156137d4576137d3612f83565b5b6137e086828701613736565b92509250509250925092565b60006020828403121561380257613801612f7e565b5b600061381084828501613531565b91505092915050565b600080604083850312156138305761382f612f7e565b5b600061383e85828601613365565b925050602061384f85828601613365565b9150509250929050565b7f4f776e61626c653a2063616c6c6572206973206e6f7420746865206f776e6572600082015250565b600061388f602083613226565b915061389a82613859565b602082019050919050565b600060208201905081810360008301526138be81613882565b9050919050565b7f4e487b7100000000000000000000000000000000000000000000000000000000600052602260045260246000fd5b6000600282049050600182168061390c57607f821691505b602082108114156139205761391f6138c5565b5b50919050565b7f5374617274696e6720696e64657820697320616c726561647920736574000000600082015250565b600061395c601d83613226565b915061396782613926565b602082019050919050565b6000602082019050818103600083015261398b8161394f565b9050919050565b7f4e487b7100000000000000000000000000000000000000000000000000000000600052603260045260246000fd5b7f4e487b7100000000000000000000000000000000000000000000000000000000600052601160045260246000fd5b60006139fb82612f88565b91507fffffffffffffffffffffffffffffffffffffffffffffffffffffffffffffffff821415613a2e57613a2d6139c1565b5b600182019050919050565b7f53616c65206973206e6f74206163746976650000000000000000000000000000600082015250565b6000613a6f601283613226565b9150613a7a82613a39565b602082019050919050565b60006020820190508181036000830152613a9e81613a62565b9050919050565b6000613ab082612f88565b9150613abb83612f88565b9250827fffffffffffffffffffffffffffffffffffffffffffffffffffffffffffffffff03821115613af057613aef6139c1565b5b828201905092915050565b7f4578636565646564206d6178206c696d6974206f6620616c6c6f77656420746f60008201527f6b656e206d696e74730000000000000000000000000000000000000000000000602082015250565b6000613b57602983613226565b9150613b6282613afb565b604082019050919050565b60006020820190508181036000830152613b8681613b4a565b9050919050565b7f4e6f7420656e6f7567682045544820746f206d696e74207468652070726f766960008201527f646564206e756d626572206f6620746f6b656e73000000000000000000000000602082015250565b6000613be9603483613226565b9150613bf482613b8d565b604082019050919050565b60006020820190508181036000830152613c1881613bdc565b9050919050565b600081905092915050565b60008190508160005260206000209050919050565b60008154613c4c816138f4565b613c568186613c1f565b94506001821660008114613c715760018114613c8257613cb5565b60ff19831686528186019350613cb5565b613c8b85613c2a565b60005b83811015613cad57815481890152600182019150602081019050613c8e565b838801955050505b50505092915050565b6000613cca8285613c3f565b9150613cd68284613c3f565b91508190509392505050565b7f19457468657265756d205369676e6564204d6573736167653a0a333200000000600082015250565b6000613d18601c83613c1f565b9150613d2382613ce2565b601c82019050919050565b6000819050919050565b6000819050919050565b613d53613d4e82613d2e565b613d38565b82525050565b6000613d6482613d0b565b9150613d708284613d42565b60208201915081905092915050565b7f5369676e65722061646472657373206d69736d617463682e0000000000000000600082015250565b6000613db5601883613226565b9150613dc082613d7f565b602082019050919050565b60006020820190508181036000830152613de481613da8565b9050919050565b7f416c6c6f77206c697374206973206e6f74206163746976650000000000000000600082015250565b6000613e21601883613226565b9150613e2c82613deb565b602082019050919050565b60006020820190508181036000830152613e5081613e14565b9050919050565b7f4578636565646564206d617820737570706c7900000000000000000000000000600082015250565b6000613e8d601383613226565b9150613e9882613e57565b602082019050919050565b60006020820190508181036000830152613ebc81613e80565b9050919050565b6000613ece82612f88565b9150613ed983612f88565b9250817fffffffffffffffffffffffffffffffffffffffffffffffffffffffffffffffff0483118215151615613f1257613f116139c1565b5b828202905092915050565b6000613f288261350d565b9150613f338361350d565b925082821015613f4657613f456139c1565b5b828203905092915050565b7f5374617274696e6720696e64657820626c6f636b206d75737420626520736574600082015250565b6000613f87602083613226565b9150613f9282613f51565b602082019050919050565b60006020820190508181036000830152613fb681613f7a565b9050919050565b7f4e487b7100000000000000000000000000000000000000000000000000000000600052601260045260246000fd5b6000613ff782612f88565b915061400283612f88565b92508261401257614011613fbd565b5b828206905092915050565b600061402882612f88565b915061403383612f88565b925082821015614046576140456139c1565b5b828203905092915050565b7f4f776e61626c653a206e6577206f776e657220697320746865207a65726f206160008201527f6464726573730000000000000000000000000000000000000000000000000000602082015250565b60006140ad602683613226565b91506140b882614051565b604082019050919050565b600060208201905081810360008301526140dc816140a0565b9050919050565b600081519050919050565b600082825260208201905092915050565b600061410a826140e3565b61411481856140ee565b9350614124818560208601613237565b61412d81612fc8565b840191505092915050565b600060808201905061414d6000830187613324565b61415a6020830186613324565b61416760408301856133ba565b818103606083015261417981846140ff565b905095945050505050565b6000815190506141938161318c565b92915050565b6000602082840312156141af576141ae612f7e565b5b60006141bd84828501614184565b91505092915050565b7f4e487b7100000000000000000000000000000000000000000000000000000000600052602160045260246000fd5b7f45434453413a20696e76616c6964207369676e61747572650000000000000000600082015250565b600061422b601883613226565b9150614236826141f5565b602082019050919050565b6000602082019050818103600083015261425a8161421e565b9050919050565b7f45434453413a20696e76616c6964207369676e6174757265206c656e67746800600082015250565b6000614297601f83613226565b91506142a282614261565b602082019050919050565b600060208201905081810360008301526142c68161428a565b9050919050565b7f45434453413a20696e76616c6964207369676e6174757265202773272076616c60008201527f7565000000000000000000000000000000000000000000000000000000000000602082015250565b6000614329602283613226565b9150614334826142cd565b604082019050919050565b600060208201905081810360008301526143588161431c565b9050919050565b7f45434453413a20696e76616c6964207369676e6174757265202776272076616c60008201527f7565000000000000000000000000000000000000000000000000000000000000602082015250565b60006143bb602283613226565b91506143c68261435f565b604082019050919050565b600060208201905081810360008301526143ea816143ae565b9050919050565b6143fa81613d2e565b82525050565b6144098161350d565b82525050565b600060808201905061442460008301876143f1565b6144316020830186614400565b61443e60408301856143f1565b61444b60608301846143f1565b9594505050505056fea26469706673582212203a86fabbd88af48c31bc3ed02d7896ea5a371a8481da1db0d109fbbfd57fdd0964736f6c634300080a0033",
  "linkReferences": {},
  "deployedLinkReferences": {}
}